:1020000000800020ED5C0000895C0000D55C0000D1
:1020100000000000000000000000000000000000C0
:10202000000000000000000000000000D55C00007F
:102030000000000000000000D55C0000415D0000D1
:10204000D55C0000D55C0000D55C0000D55C0000CC
:102050004D5C0000D55C0000752D0000D95C0000CF
:10206000D55C0000213F0000D55C0000D55C00007D
:10207000D55C0000D55C0000D55C0000D55C00009C
:10208000D55C0000D55C00006D380000D55C000018
:1020900000000000D55C0000D55C0000D55C0000AD
:1020A000D55C0000D55C0000D55C0000D55C00006C
:1020B0000000000010B5064C2378002B07D1054B1B
:1020C000002B02D0044800E000BF0123237010BDA4
:1020D000C0020020000000004CC80000044B10B5F6
:1020E000002B03D00349044800E000BF10BDC046E8
:1020F00000000000C40200204CC80000704710B56A
:10210000036800211B69984710BD436810B5591E2C
:1021100003681B69984710BD10B5036800211B694F
:10212000984710BD436810B5591E03681B6998474E
:1021300010BD000010B5112004F0B2F9434258411F
:10214000014B187010BDC046FC02002010B50C20D9
:1021500004F0A6F9013843425841014B187010BDF4
:10216000B0050020436870B504000D0016009942C8
:1021700003D0002915DB994213DA0C2003F06AFE24
:102180000023036043608360237A002B0AD04660FB
:102190006368002D0CD1002B07D12061E060013372
:1021A000636070BD33680360F2E7E2688260F5E760
:1021B0009D4203D1226990602061F0E70021E2682E
:1021C000013D96688D4202DD32000131F9E78660FB
:1021D0009060E4E7436870B504000D001600994272
:1021E00003D0002916DB994214DA0C2003F032FEEA
:1021F00000230360002343608360237A002B0AD00E
:1022000046606368002D0CD1002B07D12061E0608F
:102210000133636070BD33680360F2E7E268826097
:10222000F5E79D4203D1226990602061F0E700212B
:10223000E268013D96688D4202DD32000131F9E726
:1022400086609060E4E7436870B50400002B0ED010
:102250000025C0686368AB4205DD8668013503F080
:10226000FDFD3000F6E700236360E360236170BD8D
:1022700010B50400024B0360FFF7E5FF200010BD1E
:102280001CBC0000436870B50400002B0ED0002574
:10229000C0686368AB4205DD8668013503F0DEFD8A
:1022A0003000F6E700236360E360236170BD000047
:1022B00010B50400024B0360FFF7E4FF200010BDDF
:1022C00064BC0000037A10B5002B02D103685B6880
:1022D000984710BD037A10B5002B02D103685B68E4
:1022E000984710BD70B5040000291EDB426891427A
:1022F0001BDAC368002906D000204D1E854202DD8E
:102300009B680130FAE7013A914200D12361986855
:1023100000290BD1E060180003F0A0FD6368013BC9
:102320006360002B01D1E360236170BD82689A6015
:10233000F2E770B5040000291EDB426891421BDA07
:10234000C368002906D000204D1E854202DD9B682F
:102350000130FAE7013A914200D1236198680029DF
:102360000BD1E060180003F079FD6368013B636006
:10237000002B01D1E360236170BD82689A60F2E7AF
:102380000300002081420DDB5A6891420ADADA68C4
:10239000884202D092680130FAE71B7A1000002BC5
:1023A00000D0506870470300002081420DDB5A685E
:1023B00091420ADADA68884202D092680130FAE77C
:1023C0001B7A1000002B00D05068704773B50121B4
:1023D000042004F009F80121042004F035F800215C
:1023E000444801F09AFD0021434801F096FD434B1B
:1023F0000121186803F0F8FF414B0121186803F030
:10240000F3FF404D0121286803F0EEFF3E4C01210F
:10241000206803F0E9FF3D4B0121186803F0E4FF59
:1024200001210D2003F0E0FF0121286804F00CF8E1
:102430002068012104F008F8E121354C4902200010
:1024400002F04CF9200002F04BF9002803D10130D2
:1024500003F0BAFCF6E7012003F0B6FC2D4920009A
:1024600001F0D6FD0021042003F0EEFF0A2003F066
:10247000ABFC0121042003F0E7FF0A2003F0A4FCD9
:10248000254E300001F0BAFC002808D12349200075
:1024900001F0BEFD2000224901F0BAFDFEE721490E
:1024A000200001F0B5FD30001F4901F0BFFA0028FF
:1024B00004D120001D4901F0ABFDFEE702251C49B7
:1024C000200001F093FD1B4B00950022200001F03D
:1024D000AFFE30000022172101F022FC2A000C2060
:1024E000154903F0F1FA2A001120144903F0ECFA1F
:1024F00073BDC04690050020DC02002014000020BF
:102500001800002004000020080000201000002017
:10251000840B00203CBB00004C04002052BB000098
:1025200069BB0000B1BB000000C06444C5BB000033
:10253000D9BB000000988C404D21000035210000DF
:10254000F0B5C5B003F00AFC05000F2003F0EEFD66
:1025500006F058FBA34AA44B05F002FDA34AA44B86
:1025600005F06AFF06F0ECFBA24CA34B2168049037
:10257000186803F053FEFF23FA21A04A2360136872
:102580009F4EEB1A89008B4231D99E4F156038005F
:10259000002200F02FFE002829D0FB2302AAD371CD
:1025A00005A93800073201F011FA974C9749002825
:1025B0001AD09749200001F019FD05A9200001F06B
:1025C00027FD9449200001F011FD380000F0E5FDE1
:1025D0000A220100200001F06CFD02AB05A93000C9
:1025E000DA7907F002FC3100200001F011FD300023
:1025F000894907F0E9FB002800D0A6E0874C884E07
:102600002378002B2DD03778002F18D10C2003F021
:1026100047FF012822D1103003F042FF01000128BA
:102620001CD1804B186803F00FFF7F4B39001868EE
:1026300003F00AFF47E03378002B00D187E03378BE
:10264000002B40D10C2003F02BFF071E3BD11120A3
:1026500003F026FF0100012835D1E2E72378002BA3
:10266000E9D13378002B0BD10C2003F019FF071EA2
:1026700000D17EE02378002BE1D13378002B22D0EB
:102680000C2003F00DFF0190002800D179E02378A1
:102690000193002BD3D13378002B14D00C2003F0FE
:1026A000FFFE012800D175E02378002BC7D13378D5
:1026B000002B08D00C2003F0F3FE012800D171E0BC
:1026C0002378002BBBD1594A59491368EB1A8B4226
:1026D00005D958481560416804AAFFF77BFDFA2127
:1026E000554B89001A68554BAA1A8A4262D91D6057
:1026F000534B049A1A60FA21524A49001368EB1AA4
:102700008B4222D34E4B156019684F4B186804F06A
:10271000EFFAFE214D4B890518604000400804F097
:10272000EDF9002811D03378002B57D1484A1278A0
:10273000002A47D0012223703270454B1B78002BB2
:1027400046D0012333700023237045B0F0BD0C2028
:1027500003F0A6FE071E04D02378002B00D06EE7FE
:102760007FE7112003F09CFE01000128F4D12770BF
:1027700057E7112003F094FE012800D07AE73900D2
:102780004FE7112003F08CFE0700012800D07EE700
:10279000019946E7112003F083FE0700012800D0CD
:1027A00082E7F5E7112003F07BFE071E00D087E7E4
:1027B0003070E4E71A682749AA1A8A429BD91D603B
:1027C000214B96E7244B1B78002B07D10123BBE755
:1027D000214A1278002AB8D03370F7E72378002B0B
:1027E000B3D1AAE712A5BDC11726A33F68226C7812
:1027F0007AA50A4014030020100000204C0300209A
:10280000500300204C040020840B0020FABB000081
:10281000E7BB0000F3BB000009BC00000C00002077
:102820001803002014000020180000201C030020C2
:1028300087130000200300204803002044030020E9
:1028400040030020380300203C0300203403002014
:10285000B0050020E1040000FC02002010B50400D7
:1028600003F0FCFA200010BDF8B50C211B4801F064
:102870004DFB11211A4801F049FB1A4C1A4B032257
:102880000821200001F048F820000024174D1849C5
:102890002A0003F051FF1748174F184E2A00310045
:1028A000076044600472C460046103F045FF14488B
:1028B0002A003100076044600472C460046103F0C0
:1028C0003BFF1048104B2A00104944600472C4605A
:1028D0000461036003F030FFF8BDC046900500209E
:1028E000DC0200204C0400204C08002000000020E6
:1028F000FD2000002003002040BC000071220000E9
:10290000000300207C05002088BC0000B1220000EC
:1029100010B500F07BFB0022024B8000C358493306
:102920001A7010BD54060020F0B5040085B01E00DA
:102930000AAB1B78103001930BAB1B781700029386
:102940000CAB1B780D00039300F0E2F9200024305B
:1029500000F0DEF9220000234832A363E36323641E
:1029600063641370537063729D4205D12721084B35
:10297000084A094806F08AFA2000019B2560637125
:10298000029B2771E371039BA671237205B0F0BD12
:10299000A4BC0000B5BC000009BD000030B50400B7
:1029A00085B002AD00680291039201F0EEFC6B79F4
:1029B000227AE17920680093002301F0CBFD297988
:1029C000029A206801F006FD206801F0D4FC05B0F1
:1029D00030BD10B50400006801F0C0FC0023637234
:1029E00010BD000010B54B1C0BD0102909D0EFF31F
:1029F000108472B6102905DD02238372002C00D1E9
:102A000062B610BD0123827A1A43827218224A43A9
:102A10000449891816228A569340C2681343C3603A
:102A2000ECE7C046D0BF000007B5837A0091019261
:102A3000002B07D09A070AD5EFF310835A4253416F
:102A4000C37272B60099019AFFF7A8FF07BDDB07B2
:102A5000F8D5C368014A9BB29360F3E700180040C1
:102A6000837A002B05D09A0704D5C37A002B00D0B7
:102A700062B67047DB07FCD5C368024A9BB2D360DD
:102A8000F7E7C0460018004010B5006801F086FC6A
:102A900010BD70477047000010B5006801F0AEFC33
:102AA00003000020834203DB0C304343014A985863
:102AB00010BDC0466CBD000010B5006801F09EFC62
:102AC000002805DB0C2343430348C018406810BDB1
:102AD00001204042FBE7C0466CBD000010B5006815
:102AE00001F08CFC002805DB0C2343430348C0188D
:102AF000806810BD01204042FBE7C0466CBD00006D
:102B0000F0B506001036050089B0300000F056F927
:102B100000286CD12F002437380000F04FF9041E34
:102B200062D12800FFF7DAFFC1B2300000F026FAC8
:102B30000221300000F046FA01222E49300000F058
:102B400019FA300000F062FA2B4B8000C5502800C3
:102B5000FFF7B2FFC1B2380000F010FA02213800CE
:102B600000F030FA380000F051FA234B8000C550D5
:102B70002800FFF791FF012301002200029330009B
:102B80002300049403940194009400F041FAA86394
:102B90002800FFF781FF0123020021000193380084
:102BA0002300049403940294009400F031FAE86343
:102BB000402006F0D5F92A00483228640792002800
:102BC0000BD00123137068646B6C10221819E96B29
:102BD000103406F0D9F9402CF6D1079B1B78002B56
:102BE00005D1380000F084F9300000F081F909B017
:102BF000F0BDC046112900005406002070B5437A8C
:102C00000400002B03D1012243814272C3602300E0
:102C100048331B78002B02D12000FFF771FF1826E4
:102C20003300082120790D4D4343EB18595603F02A
:102C30004FFC33000821A0794343EB18595603F0A9
:102C400047FC082160794643AD19695603F040FC02
:102C5000034B200006CBFFF7A1FE70BDD0BF0000E4
:102C60004C0600201FB500240D4B0E4A9C801A60B4
:102C7000012301931C3300931C220B49029401335E
:102C80000A48FFF751FE02230293233300932422C4
:102C90000749019401330748FFF746FE1FBDC046B0
:102CA0004C06002000093D007C0B0020B4050020EC
:102CB000740B002000060020084B1968002909D178
:102CC000EFF31080064A002803D172B6BFF35F8F7E
:102CD000013111701A6801321A607047180800201B
:102CE00014080020084B1A68002A0CD01A68013A10
:102CF0001A601B68002B06D1044B1B78002B02D0F6
:102D0000BFF35F8F62B670471808002014080020D8
:102D1000FF2310B50370C023002104009B00417005
:102D2000418083800C22083006F037F9200010BD66
:102D300001230A0010B51A40194208D00C4A13703A
:102D4000033343708368002B00D0984710BD0223E3
:102D5000194204D006490B70C3684270F3E704239C
:102D60001942F3D0024A1370033343700369EAE750
:102D70004E48004110B5FFF79FFF0C4B1B8C1B0703
:102D80001B0F0B2B0FD80A4A9900885800280AD02D
:102D90000F2408490A78A24313430B70064B197895
:102DA000C9B2FFF7C5FFFFF79DFF10BD0048004106
:102DB0001C0800203F4800414E480041F8B5002360
:102DC0000278050018000B2A77D93C4E2B702B781F
:102DD0000B2B07D801229A403168114204D00133ED
:102DE0002B70F4E7012068E0FFF766FF3768344C8A
:102DF000002F2BD12022334B334859690A435A61A3
:102E00001022D9690A43DA610222238839009343E8
:102E100023802388013A134323802C4B6063BF3205
:102E2000A36306F0BAF8C0223900284806F0B5F8C6
:102E30004022C120264B80002380264B26491A6061
:102E40001A581140C02212040A431A5001231A00D2
:102E5000297830688A40024332600F261F4A880072
:102E600085501F4831400278B2430A430270022065
:102E70001C4A117881431170117819431170297817
:102E800022698B409A43226160223F21636C934305
:102E900063642A79636C0A40134912020B400321D0
:102EA000134363646A79636C0A40104992050B40CE
:102EB00013436364FFF716FF0020F8BD10080020DD
:102EC0000048004100040040500700209006002008
:102ED000020F000000E100E0FFFF00FF1C080020DF
:102EE0003F48004140480041FFC0FFFFFFFF3FFF58
:102EF00070B50500FFF7E0FE6B785CB2062B2BD0B7
:102F00002B7802240B2B27D801229A40144B1968E6
:102F1000114221D01968914319601B68002B14D10C
:102F20004022104BDA67BFF34F8FBFF36F8F210042
:102F30000D4A0E311388A34313800C4BDA698A4380
:102F4000DA615A6910318A435A6100242B78084AA1
:102F50009B009C50FF232B70FFF7C4FE200070BD28
:102F60001008002004E100E0004800410004004097
:102F70001C0800200232920011507047037870B58F
:102F800005000C0001710B2B14D8FFF795FE297872
:102F90000F25094829400378084AAB430B430370C7
:102FA0003F23516C1C40064B240219400C435464CF
:102FB000FFF798FE70BDC0463F4800410048004101
:102FC000FFC0FFFF037870B505000C0041710B2BAB
:102FD00014D8FFF771FE29780F2509482940037896
:102FE000084AAB430B4303700323516C1C40064B50
:102FF000A40519400C435464FFF774FE70BDC0462D
:103000003F48004100480041FFFF3FFF0078704704
:10301000F0B587B001930CAB1E780DAB1B780500A3
:1030200002930EAB1B780078039310AB1F780491CA
:1030300005920B2802D9002007B0F0BD6B78062B53
:10304000F9D0AB78002B00D179E01021080005F011
:103050007DFF0028EFD02B783B4A1B019B181A00FC
:10306000D168002904D0D1688B4201D0D268F7E73B
:10307000D06001220223AA70964203D0DB18022EF0
:1030800000D0130006240188114301800188A14368
:10309000018001881234A1430180153C018826403B
:1030A0002A4C360221400E430680029E0188284C9D
:1030B00016402140B6020E430680039E0188254C2F
:1030C00016402140F6020E4306800188224E3A4007
:1030D000314012030A43072102800F9A11400288EF
:1030E0004903D204D20C0A4302806A469288428085
:1030F000049A4260029A002A08D0019A41685A4311
:10310000002F01D00F9CA2408A184260059A82606D
:10311000039A002A09D0019A84685A431300002FA9
:1031200001D10F9A9340E31883600023EA789A4212
:1031300003D02B78044A1B019B18C3607CE7024B29
:103140000001C01895E7C04650070020FFFCFFFFB4
:10315000FFFBFFFFFFF7FFFFFFEFFFFF01207047BF
:10316000002070478171704741717047C17270478C
:103170000173704741737047837B93431943817395
:103180007047C079C0B27047007AC0B27047407AC9
:10319000C0B27047807AC0B27047008A00B27047F0
:1031A0000079C0B2704701717047408A80B27047A1
:1031B000808A80B27047C08A80B2704710B5040020
:1031C0002379032B02D102F01FFEF9E7012010BD85
:1031D00070B505000C002B682800DB6898470028B4
:1031E00007D102F011FE002CF5D0200002F0ECFD1A
:1031F000F1E770BDF8B505000F00140002F0AEFD58
:10320000060002F0ABFD801BB8420DD22B682800EF
:10321000DB689847002808D102F0F6FD002CF0D0BA
:10322000200002F0D1FDECE70020F8BD70B50500EC
:103230000E0002F093FD040002F090FD001BB0426E
:1032400005D22B79032B04D102F0DEFDF4E7002038
:1032500070BD0120FCE7C36970B50400002B17D0D6
:1032600002F07CFD64260500236820001B6B984754
:1032700000280DD002F072FDE369401B984209D886
:103280000A21012002F01BFD704302F09DFDEBE7D7
:10329000012070BD0020FCE7064BFF2203600023E5
:1032A000037142714382C272838282818373C382BB
:1032B000C3617047BCBD00007047704770477047DE
:1032C000704741717047817170470171704700000C
:1032D00010B5034C0834046001714271837110BD54
:1032E00034BE000010B50248FFF7CEFB10BDC0464B
:1032F000B405002010B50248FFF7CBFB10BDC04657
:10330000B405002010B50248FFF7C4FB10BDC0464D
:10331000B405002010B50279042A26D0032A26D04D
:10332000022A26D0013A53425A41154B52421A40C2
:10333000D21843798179013B00291CD001291AD088
:10334000022918D0032916D059424B410021DBB283
:10335000140A02724472140C120E8472C272017347
:1033600043730848FFF74AFC10BD074AE1E7074AE4
:10337000DFE7074ADDE75C426341DBB2E8E7C046CE
:1033800040420F00B40500200024F40000127A002F
:1033900000093D0010B50248FFF71BFB10BDC046F9
:1033A000B405002010B58168C2680248FFF73CFBF5
:1033B00010BDC046B405002010B50248FFF750FB11
:1033C00010BDC046B405002010B50248FFF70AFB47
:1033D00010BDC046B405002010B50400FFF778FF0B
:1033E000044B200008332360034BA3600023A38118
:1033F00010BDC04668BE000000093D00002310B5A6
:103400001A0019000148FFF7E7FF10BD4C08002023
:1034100072B6BFF35F8FBFF34F8FBFF36F8F012083
:10342000704710B50400006A0368DB689847631DA5
:10343000D87FFF2802D0012102F0D6FF23682000A8
:10344000DB6F9847642002F0BFFC012010BD10B56F
:1034500005300021C07F02F0F7FF10BD10B5053028
:103460000121C07F02F0F0FF10BD80F31088BFF390
:103470005F8FBFF34F8FBFF36F8FBFF35F8FBFF3CC
:103480004F8FBFF36F8F704770B504000D001600AB
:10349000FFF702FF034B26622360631D2000DD77E8
:1034A00070BDC046A4BE0000F8B504000E00EFF3E6
:1034B0001087FFF7ADFF0025A8421BD0206A0368E4
:1034C0001B6A9847236820009B6F98477F21206ADA
:1034D000314003681B689847206A290003681B680D
:1034E000984723680500DB6F20009847206A03682F
:1034F0005B6A98473800FFF7B8FF2800F8BDF7B5BA
:10350000040016000191EFF31087FFF781FF0025FB
:10351000A84220D0206A03681B6A984723682000CD
:103520009B6F98478021019B206A0B431900036819
:103530001B6898470500206A310003681B6898479C
:103540001023013BFDD123682000DB6F9847206AE0
:1035500003685B6A98473800FFF787FF2800FEBDC5
:10356000F7B50400150000910193EFF31087FFF702
:103570004FFF0026B04226D0206A03681B6A984796
:10358000236820009B6F98477F21009B206A0B4097
:10359000190003681B6898470600019BEB1800930D
:1035A000009B9D4207D0206A002103681B68984752
:1035B00028700135F4E723682000DB6F9847206A04
:1035C00003685B6A98473800FFF74FFF3000FEBD85
:1035D000F7B504000E0000920193EFF31087FFF798
:1035E00017FF0025A84226D0206A03681B6A984767
:1035F000236820009B6F98478021206A4942036816
:1036000031431B68C9B298470500009E019BF3181F
:103610000093009B9E4206D0206A317803680136F1
:103620001B689847F5E723682000DB6F9847206AFE
:1036300003685B6A98473800FFF717FF2800FEBD54
:1036400010B5006A03689B6A984710BD10B5C31C8B
:103650000400D87F02F024FF431E98410634E37F24
:10366000584010BD10B50430C07F02F0EDFE10BD13
:1036700010B5C31DDB7F0530C07F594002F0E4FE6A
:1036800010BD10B503790400022B08D00021FFF70C
:10369000EFFF00212000FFF7E5FF0223237110BD9B
:1036A000082388101840030010B5064A08339842D2
:1036B00005D0145C8C4203D00130C0B2F7E7002083
:1036C00010BDC04624BF0000F8B50400FFF7BEFFE0
:1036D000002805D022002A3213780133DBB21370A0
:1036E0002100230029310A782B33824252D01A78E4
:1036F0000B254F2A00D912351A785219D2B21A70F6
:1037000008701A789F2A44D92100E28D2A31520884
:10371000E2850A78042A04D98022E08D120102434E
:10372000E2851A7825006032D2B21A7000232C3557
:103730000B702A78D3B2002A48D02600303633786E
:103740000133DBB233700B2B23D93F23E18D2000F3
:103750001940FFF7A5FFE18D07008909C9B22000D4
:10376000FFF79EFF2100220075313F010B7838439F
:10377000C0B27432002B12D110701378062B02D90C
:103780001378432B0BD900232B70638A01339BB230
:103790006382F8BD1A781432D2B21A70B1E70B788E
:1037A0005F1CE3183133FFB20F701870097813787B
:1037B000994208D300232B702300012208332000F4
:1037C000DA77FFF75EFF00233370E2E7E18D054A09
:1037D0009142DED101222A702200753430321370FA
:1037E0002370D6E7380B0000F7B5050078352F7841
:1037F00004007B1C2B70002F0ED1030002007633D7
:103800000193FF321B78127A9A420BD8FFF739FFE7
:10381000E38A01339BB2E3822B78072B01D9002383
:103820002B70F7BD0600C3187736793319783378D3
:103830005A1C1941012332701940FFF713FF3378E6
:10384000052BE9D9019B37701B78019A013313705E
:10385000E2E7037910B5042B02D1FFF735FF10BD65
:103860000379032BFBD1FFF7BFFFF8E71023054ACD
:1038700010B5917B0B439373034B1868FFF7E9FF77
:1038800010BDC046002C00425C080020012070479B
:10389000FB20704710B503790400052B10D0036896
:1038A00005210433DB6F9847072201212000FFF731
:1038B00026FE802240212000FFF721FE05232371F0
:1038C0002379052B02D102F09FFAF9E7207EC0B2DE
:1038D00010BD80F31088BFF35F8FBFF34F8FBFF32E
:1038E0006F8FBFF35F8FBFF34F8FBFF36F8F704743
:1038F00010B503790400012B0BD0036801210433B8
:10390000DB6F9847002201212000FFF7F8FD01231B
:103910002371012010BD000070B5040015001A00CD
:10392000FFF7B2FD0A4B942223600023FF215200CF
:10393000A3540432A354E21DD5770132D1772C224F
:10394000FE39FF32A154A21D2000D37770BDC046BE
:103950004CBF0000030028331B78032B21D9030040
:1039600029331B78C37103002A331B7803720300C9
:103970002B331B78437203002C331B7883728379BB
:10398000002B06D1C37942799A4202D0C379FF2B2A
:1039900007D1838A012201339BB2838294235B0087
:1039A000C254704710B50300EFF3108072B6BFF336
:1039B0005F8FBFF34F8FBFF36F8F942100224900B9
:1039C0005A5428331A70FFF784FF10BD0368F7B507
:1039D000DB6804000E00150098470190002822D0F3
:1039E000002E1DD0002D1BD0EFF3108772B6BFF351
:1039F0005F8FBFF34F8FBFF36F8F22002832137892
:103A00002978033B8B4202DC1378043B2B702100A6
:103A100030002A782D3105F0B7FA3800FFF759FF4A
:103A20002000FFF7BFFF0198FEBD000070B5050044
:103A3000081C0E1C05F03CF90022134B04F090FA10
:103A4000124B002203F086FE03F076F80400020C0D
:103A500006212800D2B2FFF752FD220A28000721D2
:103A6000D2B2FFF74CFD2800E2B20821FFF747FD74
:103A7000301C074903F056F8431E98412A23FF33B0
:103A8000E854012070BDC04680842E4180844E40A1
:103A900000C0424410B503790400022B0BD0036828
:103AA00002210433DB6F9847012220001100FFF749
:103AB00026FD0223237110BD70B512210400FFF70B
:103AC000F3FC1C2105002000FFF7EEFCFF2206009E
:103AD00012212000FFF713FD2379042B09D19C3319
:103AE0001D421AD12C23FF33E35C002B01D0730657
:103AF00013D52379042B01D16B0620D42379032B12
:103B000002D12B0700D56DE02379052B0CD16B0773
:103B10000AD501200540257654E0638A2000013350
:103B20009BB26382FFF73EFFFF2212212000FFF7C6
:103B3000E6FCFF2212212000FFF7E1FC70BD1321FB
:103B40002000FFF7B1FC102105002000FFF7ACFCBE
:103B50000D2102002000FFF7D2FC22002B002932A9
:103B600000212000FFF7FCFC230028331D701921E1
:103B70002000FFF799FC0322952543B2D817104087
:103B8000C01880106D0060551A212000FFF78CFCD2
:103B900000B220826257002A18DA238A9B181BB2CF
:103BA00023822A23FF33E35C002B18D0238A9D3B1A
:103BB0001BB223822000FFF7CDFE94235B00E35C61
:103BC000002BB1D02000FFF765FFADE7208A0F2161
:103BD00000B2000102F04CFE00B22082E1E7238A2D
:103BE000A43BE5E7E38A01339BB2E382EAE7000006
:103BF000034B10B51868002801D0FFF75DFF10BD1A
:103C000064080020034B10B55868002801D0FFF766
:103C100053FF10BD64080020034B10B598680028BE
:103C200001D0FFF749FF10BD6408002010B50379EB
:103C30000400042B10D0036804210433DB6F984781
:103C4000052201212000FFF75AFC0022402120001C
:103C5000FFF755FC0423237110BD10B50379040050
:103C60000020032B06D02000FFF7E0FF94235B0029
:103C7000E05CC0B210BD10B503790400032B10D076
:103C8000036803210433DB6F9847032201212000DE
:103C9000FFF735FC402220001100FFF730FC032322
:103CA000237110BDF8B504000F001500FB2A02D9DE
:103CB00000263000F8BD03681B6A98472000FFF714
:103CC000E9FE23682000DB6A9847061EF0D0002238
:103CD0000D212000FFF713FCE27A00212000FFF7FE
:103CE0000EFC227B00212000FFF709FC627B0021F3
:103CF0002000FFF704FCA27B00212000FFF7FFFB60
:103D00002B003A0000212000FFF762FC2A1D22212F
:103D10002000D2B2FFF7F3FB2000FFF7ACFFC8E7AB
:103D2000831D70B505000C00DA77002A15D00B1C36
:103D300000290DDA002370221A430921D2B228008B
:103D4000FFF7DDFB04224D212800FFF7D8FB70BDF3
:103D50004AB20F2AEFDD0F23EDE7142911DC012908
:103D600011DD112910DD07224D212800FFF7C7FBC7
:103D7000033C64B28022023C524222430921D2B267
:103D8000E2E71424EFE7022404224D212800FFF784
:103D9000B6FBEFE770B50D0004000A781D21FFF7B0
:103DA000AEFB6A781E212000FFF7A9FBAA78262126
:103DB0002000FFF7A4FB70BD13B504000020052907
:103DC0000BD803225143054B01A8591805F0DCF824
:103DD000200001A9FFF7DEFF012016BD34BF00005F
:103DE00070B505000C000A0A2021FFF788FB2800A7
:103DF0002121E2B2FFF783FB70BD0000F8B504009B
:103E0000FFF70FFB061E02D100263000F8BDE71DAC
:103E1000FD7FFF2D4DD029002000FFF711FC01216F
:103E200080222000FFF76BFB0A2001F0CDFF01216B
:103E30002000FFF739FB8028E6D1F87FFF2819D052
:103E4000002102F0D1FA23000833DA7FFF2A06D1DD
:103E50001E490A78032AD7D8501C0870DA77DB7F0E
:103E60001B4A99008C50002B26D1042219492800A6
:103E700001F02AFE00220E212000FFF740FB002265
:103E80000F212000FFF73BFB2000FFF703FE00217E
:103E90002000FFF791FF20000821FFF7A1FF20007D
:103EA0000D49FFF7C3FD00220D212000FFF738FF69
:103EB000ABE701256D42B2E7012B02D1042207498D
:103EC000D5E7022BA0D104220549D0E760080020E5
:103ED00064080020F13B00000000D943053C0000CD
:103EE000193C000070B50400002508006560110051
:103EF0002060A560E56002F077FA206802F0D0FA51
:103F000020616061A061E561200070BD10B5040012
:103F10000222FFF7E7FF200010BD4160704700005C
:103F200010B5024801F0D6FC10BDC0467008002054
:103F300013B5114C1149200000F087F910491148C0
:103F400000F083F91049114800F07FF91049114839
:103F500000F07BF91049114800F077F91049114839
:103F600000F073F901230322210000920193002243
:103F70000D4801F045FC13BD6C0B00200008004209
:103F8000000C0042700B002000100042740B002057
:103F900000140042780B0020001800427C0B002027
:103FA000001C0042800B002070080020F8B50500BE
:103FB0000E0017000024BC4208D02B682800315D99
:103FC0001B689847002801D00134F4E72000F8BDB1
:103FD00070B505000C00081E07D005F0FFFE2B6829
:103FE0000200210028005B68984770BD10B5FFF7FC
:103FF000EFFF10BD10B503681B68984710BD0000A7
:1040000010B50249FFF7E4FF10BDC046D8C3000059
:1040100070B50400FFF7DCFF05002000FFF7F0FF9C
:10402000401970BDF0B58BB06B461400002205330B
:1040300007000D00DA77012C00D80A2409AE280009
:10404000210002F011FC0300CAB2080029001D0083
:1040500013003733DBB2092802D813003033DBB248
:10406000013E33708C42EAD931003800FFF7B0FFCF
:104070000BB0F0BDF8B507000D00161E04D10368A3
:10408000C9B21B689847F8BD0A2A0CD100290BDA7F
:104090002D21FFF7AFFF3200040069423800FFF71F
:1040A000C1FF2018EFE7D2B229003800FFF7BAFFAE
:1040B000E9E770B50400FFF7DDFF05002000FFF71A
:1040C0009FFF401970BD0000F7B51C0008AB1B78BE
:1040D00021000093070023001000150004F03EFDAE
:1040E0004A4900281ED101226600760828003100C6
:1040F000474B524204F032FD002809D10122310021
:104100002800434B524202F0BFFC4249002809D02C
:10411000E02228002100404B120602F0BFFC0028DC
:1041200006D03E493800FFF753FF06003000FEBDC1
:10413000E022280021003A4B120602F09BFC0028E6
:10414000EFD1002200232800210002F093FC002878
:1041500014D02D213800FFF74DFF80231B0601905E
:10416000E418002600202F49009BB34208D000220B
:104170002D4B013603F0EEFAF6B2F5E70190F0E7C9
:104180002A00230002F07CFF0D00040002F0D4FCA2
:10419000060004F067FD0B0002002900200004F077
:1041A0004BF90A2204000D0038003100FFF73AFFF6
:1041B000019BC618009B002B04D038001B49FFF759
:1041C00007FF3618009B013BDBB20093FF2BADD0FD
:1041D000154B00222000290003F0C2FE0D00040050
:1041E00002F0AAFC0A22010001903800FFF71AFF32
:1041F0003618019804F036FD02000B00200029005B
:1042000004F01AF904000D00DCE7C046DBC300002F
:10421000FFFFEF7FDFC30000FFFFEF41E3C30000BC
:10422000FFFFEFC10000E03F00002440E7C30000B3
:1042300037B506990400C9B20091FFF745FF0500A4
:104240002000FFF7DDFE40193EBD01607047944637
:10425000F0B505AC25789C1E621E94416246066846
:104260009207376824063A432243072432600068E5
:104270002140AD01002442682943022B00D05C0399
:104280000A4322434260F0BD30B5C0250368AD0348
:104290001C6812052A402243C0240904A4022140BC
:1042A0000A431A6003685A6814435C6030BD0123F6
:1042B000026811680B43136003681A68D207FCD4C4
:1042C000DA69D207F9D470470223026811680B43F8
:1042D00013600268D3699B07FCD4704703681A7E99
:1042E000D20702D41A7E9207FCD5704700220368D9
:1042F0005A8370470368187E4007C00F70470368F1
:10430000187EC0097047802302685B42117E0B4310
:10431000137670470368588B8007C00F70470223DD
:104320000268518B0B43538370470368187EC007A4
:10433000C00F70470368188DC0B2704703681A7EBB
:10434000D207FCD589B20120198570470122036884
:104350009A757047012203681A7570470123026835
:1043600011680B43136003681A68D207FCD4DA693A
:10437000D207F9D470470223026811680B43136017
:104380000268D3699B07FCD470470368DA69920717
:10439000FCD402211A688A431A6070470268936A43
:1043A0005B0A5B020B43936203681A7E5207FCD5DB
:1043B000986AC0B27047000010B50548490002F085
:1043C000CDF980B2002801D0013880B2C0B210BD52
:1043D000006CDC0270B50C00012611006308026855
:1043E00033403440156824075B0723432B43136095
:1043F0000468FFF7E1FF207370BD00000368104AF6
:10440000934213D00F4A934212D00F4A934211D0D5
:104410000E4A934210D00E4A93420FD001200D4A0B
:104420004042934201D1063040B270470020FBE782
:104430000120F9E70220F7E70320F5E70420F3E77E
:1044400000080042000C004200100042001400422C
:1044500000180042001C0042F8B5FFF7CFFF00280B
:104460002CDB1D4BC000181805230479C35603200C
:10447000FF221840C0008240C021D2438140002B5F
:104480001DDB1F2501201D40C026A840134D7600CE
:10449000A851C0269B089B005B19B6009F593A4063
:1044A0001143995128603F2323408024E4011C4399
:1044B0000B4B5C805A7852B2002AFBDBF8BD0F2010
:1044C0000340083B07489B089B001B18D869024023
:1044D0001143D961E7E7C046ECC3000000E100E00A
:1044E000000C004000ED00E0F8B504000F001600DD
:1044F0001D00FFF7B1FF2000FFF7D9FE1C21BB0014
:104500000B4071072268090C0B4313608423226857
:104510009375012F1AD11021012E00D008390C4BB0
:1045200069431868C00002F019F9072221680240A7
:104530008B895203DB04DB0C13438B812268030459
:104540009089DB0C400B400318439081F8BDC046B6
:10455000B0000020F7B50500019308AB0C00160071
:104560001F78FFF7FBFE2800FFF776FFC021C0226F
:10457000890224040C409203BF07360527431640E6
:104580003E430C2707222B683E431E60019B29688F
:1045900013401A0080239B0213434B602A68D3699F
:1045A0005B07FCD4F7BD3F20704713B56B4602682C
:1045B000D9710733546819000122A04716BD10B500
:1045C0000221006900F03EFC10BD10B50321006916
:1045D00000F04EFC10BD000010B51300084A0400A6
:1045E000D279002A03D101230020636010BD0A00A4
:1045F0000069032100F034FD0028F4D0F6E7C0463E
:104600003800002010B5054C03002068421C04D17E
:104610001A68180052699047206010BD840000207D
:10462000074A0300106810B5411C03D001235B4208
:10463000136010BD0221186900F004FDF9E7C046BF
:104640008400002010B5037842220233037002492F
:10465000024800F0B1FD10BD40000020A00B00207A
:1046600010B50178030042780020A12908D1212A41
:1046700005D1174917481A3A00F09EFD012010BDD8
:104680002129FCD1202A13D111491248193A00F0EE
:1046900033FC96220E4BD200196891420ED1DA7982
:1046A00001231A420AD1FA2001F070FF0020E6E748
:1046B000222A06D19A78064BDA71EAE701F06CFFFC
:1046C000F4E7232ADBD15A88034B1A60D7E7C046A8
:1046D00038000020A00B00203400002070470000AC
:1046E00010B501F03BFBFA2300245B00984207D38E
:1046F000044B0A20DC79631E9C41E4B201F064FBA8
:10470000200010BD38000020FA220021054B920045
:104710009A60054A08321A60044A59601A6119768B
:104720007047C046840B00201CC40000A00B002072
:10473000704770B50F26CB1D02003240D5B22C0059
:1047400000093034092A00DD07341C705A1E9942D2
:1047500000D170BD1300EFE710B50400806904F0CC
:1047600009FCA06A04F006FC200010BD10B504008E
:10477000FFF7F2FF200001F071FB200010BD0000E8
:1047800070B5032908D1324B8000C058002802D0F0
:104790000368DB68984770BD82291FD1C3B22D4DD5
:1047A0005A01AA1891692C4C80010C40C02189053E
:1047B00021439161294908334018802150612A68BA
:1047C0005B01D01804794942214301717020995C42
:1047D00081430800302101439954DCE70029DAD1F4
:1047E000C024C1B21B4E4A01B21893681A4DA405E9
:1047F0002B40234393601A4B8001C0180B0050607C
:104800003068072608335B01195CB1430E000121B3
:104810003143195491690D402C43946170240F4920
:104820005161195CA1430C00102121431954916876
:104830000C4CC3180C4080214903214391609168BE
:10484000890B89039160402259790A435A71A2E782
:10485000A40B002058100020FFFFFF8FCC0B00207E
:104860008C0D0020FF3F00F0EFF310830360012365
:10487000436072B670470368002B02D162B6BFF383
:104880006F8F704737B5056904006846002D14D155
:10489000FFF7EAFF019B621D013B02D3D57FEDB21A
:1048A000FAE768460193FFF7E6FF002D01D10020EB
:1048B0003EBD206AE369C01AFAE7FFF7D5FF220080
:1048C0000025019B3432013B02D31578EDB2FAE7A3
:1048D00068460193FFF7CFFF002DE8D0206BE36A15
:1048E000E9E70000F0B5FF250126426883681168FA
:1048F0002B405B01CC186419A77AD3183E43A672EB
:10490000C6689C680B4FB60436093C4034439C6033
:1049100083682B405B01D2189468A40BA4039460B5
:10492000402283682B4008335B01CB1819790A4376
:104930001A71F0BDFF3F00F0F7B5056904000E00E5
:1049400017006846002D43D1FFF78EFF019B601DC5
:10495000013B5A1C0BD0C27F591E002A05D1684664
:104960000193FFF788FF2800FEBD0B00F1E76846C2
:104970000193FFF780FFE369AF420AD0226A9A42AF
:1049800007D95A1CE261A269D3181B787355013507
:10499000F1E7226A9A42E6D10023E36101336846D7
:1049A0002361FFF761FF22000021019B671D013B8E
:1049B0003532581CD3D0F97710785E1E002805D008
:1049C000200011700193FFF78DFFECE73300F0E753
:1049D000FFF74AFF2000019B3430013B5A1C06D0F0
:1049E0000278591ED5B2002AB9D00B00F6E7684606
:1049F00001930025FFF73FFFE36ABD4202D0226B1F
:104A00009A421CD8226B9A42ADD100236846E362D9
:104A10002361FFF729FF270022000021019B343783
:104A2000013B3532581C9AD0397010785E1E002830
:104A30000DD0200011700193FFF754FFEBE75A1CD3
:104A4000E262A26AD3181B7873550135D4E73300AC
:104A5000E8E7F7B582684368D2B211000400083174
:104A6000186849014118C879C00729D501255201A4
:104A7000CD719B189A6861699204920C002923D128
:104A80002262226A002A41D0A26A656168465A60A1
:104A9000FFF7EAFE342294462200019B671D013B8A
:104AA000A4443532591C2DD06146FD770978581E33
:104AB000CEB2002905D0019368461570FFF7DBFEE2
:104AC000F7BD03001670EDE72263226B002A1DD0AC
:104AD000002227006261A26968465A60FFF7C4FE9F
:104AE000019B621D9446013B34373032591C09D07A
:104AF00061463D70C97F581ECEB20029DBD103004C
:104B00001670F3E768460193FFF7B5FE2000FFF744
:104B1000E9FED5E713B56A4600230C00D01DD3711A
:104B2000FFF790FD23681818206001F0ABFD6B467D
:104B3000D91D01F073FD236818186B462060D879E1
:104B400016BD000003290ED180220E4B62311B6876
:104B5000FF31585C524202435A5468226339FF3293
:104B6000FF39995470470129FCD18022054B24312B
:104B70001B68FF31585C524202435A5428222339A1
:104B8000FF32EDE75810002070B500252F4B0121B2
:104B9000040020201D7001F027FC0121202001F0DD
:104BA00053FC2B4B01211F201D7001F01DFC012126
:104BB0001F2001F049FC2023264A0F20D1690B4316
:104BC000D361012224490B7813430B70234B1978CE
:104BD0008143197006211D782943197020490D78E9
:104BE0002A430A701A7802401A70602219780A4320
:104BF0001A701C4B1C4A5A805A78D209FCD11B48A7
:104C000001F0A6F81A4D280001F050FD280001F02F
:104C100063FD7F212B68C1201A7880000A401A703A
:104C2000042219780A430C211A701A898A431149FF
:104C30001A810A581202120A0A5080220A60197850
:104C40007E3A0A431A700123237070BDC10B002005
:104C5000C00B002000040040584400413C44004187
:104C600059440041000C004006400000415600003D
:104C70005810002000E100E00078002810D0012149
:104C8000084B1B681A898A431A810822198B0A4328
:104C90001A830422198B0A431A830022024B1A60DA
:104CA0007047C04658100020501000200A000E49DE
:104CB0008B699B0B9B038B610B680221FF3319727D
:104CC0009879823901439971197A8907FCD57F2037
:104CD000064B0240997A8143114380229972997A56
:104CE00052420A439A727047581000200050004107
:104CF00010B50B790C00002B0CD10800FFF7B0FCAD
:104D0000002801D0012010BD094A93699B0B9B0329
:104D10009361F7E701F0B6FC210001F0A3FC002845
:104D2000F0D1034A93699B0B9B039361EBE7C04669
:104D300058100020F7B50D001100832A19D1EBB2ED
:104D4000324C5A01A21891693148AD010840C02186
:104D50008905014391612F4920686D18702108333E
:104D600055615B011A5C8A43110040220A431A54C0
:104D7000F7BD022A45D1284AAB009858002802D036
:104D800003685B699847382001F064F8234B80275B
:104D9000036000231D4E7F00421D036203614361D7
:104DA000C36146608560C760D3772F32C3620363F7
:104DB000040013703800537004F0D2F80190A06121
:104DC000380004F0CDF8EBB25A01A062B218916835
:104DD0000F4808330840C0218905014391603168BC
:104DE00007265B01585CAD00B0430600032030434A
:104DF0005854019B20005360FFF774FD064B5C5133
:104E0000B6E72800FFF7BCFCB2E7C0465810002008
:104E1000FFFFFF8FCC0B0020A40B002048C4000034
:104E200070B505000124064BA200D258002A05D017
:104E300021002800FFF77EFF0134F4E770BDC04673
:104E400088000020084B8A00D05810B5002803D0F5
:104E500003689B68984710BD044BC9B249015918B3
:104E600088688004800CF6E7A40B0020581000200E
:104E700010B50C00FFF7E6FF00280CD0064BE4B29B
:104E800019688023083464010C1962795B4213436A
:104E900063710223E37110BD5810002070B5CBB2CE
:104EA000124A13485C0189018918021951609168FE
:104EB000104D08330D40802189022943402591601F
:104EC0009168890B8903916001685A018A181679E3
:104ED0003543157195796D06FCD55B01C918CB7901
:104EE000DB07FCD500198068C0B270BD8C0D0020B6
:104EF00058100020FF3F00F070B5140040220B4B0B
:104F00000D001B68FF3359790A435A710021FFF7DE
:104F1000C5FFA04200D9200000230549A34203D0C9
:104F2000CA5CEA540133F9E770BDC046581000204E
:104F30008C0D002010B50C48C9B249014218936885
:104F40009B049B0C3F2B0BD99468403B9B04A40B08
:104F50009B0CA4032343936041188868C0B210BD22
:104F600093689B0B9B03F6E758100020F0B51C00DC
:104F70002F4B85B01B6806000D000192002B54D00A
:104F80002C4F3B78D9B2002B02D11F2001F05CFAE4
:104F900064233B70284BAA00D058002808D003682F
:104FA00022005B68019998470400200005B0F0BD1D
:104FB00029003000FFF746FF844204D92900300061
:104FC000FFF740FF040029003000FFF7B3FF012185
:104FD000EBB21A4F03935B010293029A3B6801986C
:104FE0009B18FF335A7A0A435A72154BA9012200C3
:104FF000C91803F0C9FF002CD7D029003000FFF7F3
:1050000021FF0028D1D14021039B3A6808335B017E
:10501000D3181879014319710121D971029BD31852
:10502000FF339A7A0A439A72BFE701246442BCE7CD
:1050300050100020C00B0020A40B002058100020AE
:105040008C0D002013B56B46DC1D22000123FFF7F9
:105050008DFF012801D1207816BD01204042FBE7D9
:10506000F0B51C003A4B85B01B680E000192002B76
:105070003FD08023DB019C423BD8364D2B78D9B200
:10508000002B02D1202001F0DFF9642300272B70D0
:10509000314BB201D3180293002C2CD02F4B1B683C
:1050A0000393FF2333401D0000930835039B6D01DC
:1050B0005D19AB79DB0921D0294B2A49186801F029
:1050C0004DFB294B1721584301F048FB274BEA7948
:1050D000920713D49A5D002A01D10138F7D2012238
:1050E0009A55009B5A011D4B9B189A69920B92038B
:1050F0009A6101277F42380005B0F0BD00221B4BAA
:1051000025009A55402C00D940252A000199029883
:1051100003F03AFF009BA9045A01104B890C9B181D
:10512000029A7F195A619A69641B920B92030A438F
:105130009A61009B039A08335B01D3180222DA714B
:105140005979823A0A435A71019B5B190193A3E78B
:1051500050100020C10B0020CC0B00205810002064
:10516000B000002040420F0070110100C30B00206E
:1051700070B50C001D000D4BA601F6181100300093
:105180002A0003F001FFE4B2094A640114196661C0
:10519000A369084928000B40A361A169AB04890BEE
:1051A0009B0C89031943A16170BDC046CC0B002044
:1051B00058100020FF3F00F0F7B5104B0F001B7890
:1051C00014000190002B0CD10D4B16001D78002D02
:1051D00009D00C4E0C48358828182D1903F0D4FE40
:1051E00035802000FEBD002EFBD033007A1900214F
:1051F0000198FFF7BDFF2D18361AF4E74C0F002079
:105200004D1000204E1000204D0F0020F8B500205A
:105210000D00140000AF012A27D9D31D6A46DB0810
:10522000DB00D31A9D46080004F0D8FD6E46032328
:10523000022200210130400030707370A2420DD272
:10524000287800280AD0531CDBB20135B0549C42A8
:1052500003D00232F154D2B2F0E722003100044808
:10526000FFF7AAFF431E9841C0B2BD46F8BDC04635
:10527000A00B0020F0B50025012785B0184B0E00CB
:1052800069461F7004000095FFF744FC154B01A907
:105290000B806A3BFF3BCB716E3B0B72009B320075
:1052A00009334B800E4B8D714F7108711D70092EA3
:1052B0000FD00D4E092237700C4F200000953D8015
:1052C000FFF77AFF69462000FFF724FC3A88084977
:1052D00035702000FFF770FF012005B0F0BDC0461B
:1052E0004C0F0020090200004D1000204E1000203D
:1052F0004D0F0020F0B5CF7805000E0093B0022FBF
:1053000009D1C9882B48FFF7B5FF441EA041C4B29C
:10531000200013B0F0BD01F0B5F9310001F092F9B1
:10532000002803D0C417241AE40FF1E7012F0BD192
:10533000F2882149112A11D8D2B2002A0ED02800B1
:10534000FFF73AFF0124E3E70400032FE0D1B3782D
:10535000002B05D1F2881949032AEDD90A78EEE726
:10536000022B06D1B27916492800FFF74FFF04003F
:10537000CEE7012B02D1B2791249F5E7032BC7D151
:10538000114B01A91868FFF7D4F9104B03A918684D
:10539000FFF7CFF90E4B05A91868FFF7CAF90D4BB7
:1053A00007A91868FFF7C5F96B460533DC77B279B2
:1053B00001A9D9E7A00B002081C4000074C400003B
:1053C00060C4000078C400000CA0800040A08000F1
:1053D00044A0800048A0800037B5050048780C0044
:1053E0000B2810D801F0B0F9061B0F310F484D758E
:1053F00051546E71097801AA002906D10223118047
:105400002800FFF7B5FE01203EBD00231380324B7C
:105410001B78012B00D1137002230021F0E78A785A
:105420000023012A09D16A4693802C4B1B78012B5B
:1054300000D11371022301AAEFE7274A1370284A0B
:1054400093699B0B9B039361DDE78C78012C07D15B
:10545000224B01AA1C70234B1B7813702300DCE73E
:1054600000208442D0D11C4B01301D4A1870936932
:105470009B0B9B039361C7E728008978FFF716FC15
:10548000C1E72800FFF736FFBEE70123164AC4E74D
:105490000B780020DB06B7D12800FFF7C1FC2A20DB
:1054A0000221A278104BFF301A600D4A13681C5C71
:1054B00021434A241954FF34195D2938FF38014328
:1054C0001955D4E70123094AA7E78A78074B1A60E0
:1054D000B5E7002098E7C046C20B0020CA0B0020A9
:1054E00058100020DAC30000501000205410002093
:1054F0004B4BF7B51C780700002C00D083E0494ED9
:1055000033689B8B1B070ED521002000FFF738F96D
:10551000326810231100FF31887A03438B72424BAB
:105520001C600823938333689A8B52071FD504228B
:105530009A833E4A1378002B0AD01378013BDBB2E2
:1055400013701378002B03D10121202000F07CFF81
:10555000374A1378002B0AD01378013BDBB2137063
:105560001378002B03D101211F2000F06DFF336859
:10557000FF331A7AD2061ED510221A7259793032A8
:105580000A435A7160232B4938000A781A423BD1EA
:10559000FFF722FF3368FF33002838D08022997943
:1055A00052420A439A711A7A520604D540221A725C
:1055B000597A0A435A72336800241D8C01239D4393
:1055C000EDB20193E1B2002D1DD02B002341019AD1
:1055D000134215D02300326808335B01D318DA79FF
:1055E000D20702D4DB799B0707D5134BA200D05812
:1055F000002810D003681B689847019BA3409D4377
:105600000134092CDED1F7BDFFF772FBC2E7202180
:105610000A4A9171C7E73800FFF794FAEDE7C046F0
:105620004D1000205810002050100020C10B002009
:10563000C00B00208C0D0020A40B0020FF50004167
:1056400010B50248FFF754FF10BDC046A00B002064
:10565000014B024A1A607047581000200050004168
:105660000120704710B50368014A1B6A984710BDB6
:10567000130400000300FC33D96F9A6F914203D0EA
:10568000DB6FC018007D704701204042FBE710B57A
:1056900004000069FEF70BFE22000023FC32936732
:1056A000D3679E229200A4186366A36610BDF02300
:1056B0001B011940802306209B0099420AD0013328
:1056C000FF330130994205D0802300205B009942CE
:1056D00000D1053070470F2001400020012903D080
:1056E0000239481E8141481C70470000B923F0B5BB
:1056F000182785B002919B000400C05C3B00082184
:105700004343324E1500F318595600F0E1FE304B7A
:105710000821E05C3B004343F318595600F0D8FEE3
:105720002C4BE25C0393022A09D11133E05CFF2881
:1057300005D008214743F719795600F0C9FEBA276A
:10574000BF00E05DFF2819D0012100F04DFE1822B6
:10575000E35D21495A43B356B618DB015818BB2103
:10576000890060501D4901225B18BC2189006350EB
:1057700071688A40BD21890062501A600122029B33
:1057800011002069FEF7B0FE29002000FFF78FFF0F
:10579000290006002000FFF79EFFF0221540303D53
:1057A0006A42554103003100206901220095FEF74D
:1057B0004EFD0B4B2069E25C039BE15CFEF764FD50
:1057C0002069FEF781FD05B0F0BDC046D0BF0000E6
:1057D000E5020000E70200001844004114440041C3
:1057E000E6020000AF2210B504000021520003F0D1
:1057F000D4FB23000022FC3320005A669A6610BDB9
:10580000F7B51D0008AB1B780400009309AB1B78AB
:105810001600019300234360FA239B008360104B22
:105820000F00083303601430FFF7DCFF20007D30E9
:10583000FF30FFF7D7FFB9239B002761E654094BE0
:10584000009AE554084B2000E254019A074BE254B9
:10585000BA22E93BFF3B9200A3541032A354FEBD91
:1058600094C40000E5020000E6020000E702000028
:105870000300FC33586E9B6EC01A01D55F30FF30B9
:10588000704710B5040020007D30FF30FFF7F0FFB7
:105890000028F8D12069FEF721FD10BD10B51430A5
:1058A000FFF7E6FF10BD0300FC33596E9A6E91427C
:1058B00005DB5A6E986E801A5E30FF307047986E26
:1058C0005B6EC01A0138F9E710B57D30FF30FFF785
:1058D000EAFF10BD70B504000069FEF71BFD00284B
:1058E00005D02069FEF726FD2069FEF718FD206926
:1058F000FEF700FD002824D025002069FEF71AFDE0
:10590000AF21FC350600A86F4900013000F0ACFF64
:10591000EB6F994203D0AB6FE3181E75A967BA23EA
:105920009B00E35CFF2B0CD020001430FFF7BBFF83
:10593000092806DCBB23BD229B009200E358A25835
:105940001A602069FEF7F1FC00281DD020007D3090
:10595000FF30FFF78DFF002825D09E239B00E6181F
:10596000B26E736E9A421BD0BE22AF21B36EB06E80
:10597000E3185200013049009D5C00F075FFB166EC
:105980002069E9B2FEF7DAFC2069FEF7B8FC0028CE
:1059900005D02069FEF7B7FC2069FEF7A7FC70BDB3
:1059A00001256D42ECE72069FEF7D4FCECE700002E
:1059B000F7B5040000690E00FEF7B7FC002847D1D8
:1059C000AF277F009E239B00E518686EAB6E390001
:1059D0000130019300F048FF019B994224D1EFF37D
:1059E0001083DB070ED4204B5B68DB05DA0D002B40
:1059F000E8D0103A53B212060DD49B081B4AC033AC
:105A00009B009B582069FEF790FC0028DAD020000C
:105A1000FFF760FFD6E70F221340083B144A9B08AC
:105A20009B009B181B68EDE7AF21686E49000130B1
:105A300000F01AFFAB6E994205D0BE226B6E520089
:105A4000E3189E5469662069FEF780FC0120FEBDC4
:105A500020007D30FF30FFF70BFF0028B0D1310070
:105A60002069FEF76BFCF1E700ED00E000E100E0EB
:105A70001CED00E070B50500FC35EA6FAB6F04006B
:105A80009A421DD0AF21EB6F4900C318E86F1E7D0D
:105A9000013000F0E9FEE967BA239B00E35CFF2BCD
:105AA0000CD020001430FFF7FEFE0A2806DDBC23D0
:105AB000BD229B009200E358A2581A60300070BDCE
:105AC00001267642E8E70000F7B500921822162674
:105AD0004243544B07009B189E570191731C52D0B0
:105AE000514B524C1D68002D2BD1290044225048A7
:105AF00003F053FA290044224E4803F04EFA1022D4
:105B00004D4B4E491D604E4BCA67BFF34F8FBFF3DD
:105B10006F8FC021C12049005A5080001958FF35AD
:105B2000A94319501A60474B474A5A8002232278EA
:105B3000134323706378DB09012BFBD001223A4B1E
:105B40001A6001231D00B54062692A436261019A0F
:105B5000002A18D0102E1FD1E2781343E370009B67
:105B6000042B0BD818000723A2789A4300F0ECFD11
:105B7000030C0E10120005231343A3702D4B019A42
:105B80001A64ADB2E560F7BD0423F5E70323F3E73C
:105B90000223F1E70123EFE738000027002100F09E
:105BA00097FC254B22499C461B68BA00BB421DD17D
:105BB0006046013303601F4B8D5001999950072EA9
:105BC00019DD32000123083A92000720904017495E
:105BD0009B005B1899698143996100990429D0D889
:105BE000080000F0B1FD0B1215181B008858A842E0
:105BF000E1D00137D9E70023B200E6E70521986933
:105C000091400A0002439A61BBE704219869F7E7D3
:105C100003219869F4E702219869F1E70121986965
:105C2000EEE7C046D0BF0000E4110020001800409D
:105C3000A01100205C110020E811002004E100E028
:105C400000E100E0000C00400540000070B50024B9
:105C5000094D0A4B1B68A34200D870BD084E2A6844
:105C600033691A4205D0074BA200D35898472B68D6
:105C7000336101340435ECE7A0110020E811002065
:105C8000001800405C110020054B10B51B6C002B68
:105C900000D098470123034AD1780B43D37010BD3D
:105CA0005C1100200018004010B5041E05D004F05F
:105CB00047F8210000F0C2FE0C00200010BD10B516
:105CC0000400884203DA081AFFF7EEFF24182000C8
:105CD00010BDFEE7FEE70000034B10B51B68002B6C
:105CE00000D0984710BDC046EC1100200F4A104864
:105CF000110010B50F4B824202D0934209D113001C
:105D0000824209D100F0AEF800F082F8FEE710CB35
:105D100010C18142FBD3F3E7074A8B42F2D0002146
:105D2000064B9A42EED202C2FBE7C04600000020BA
:105D3000C002002050C80000C00200202412002031
:105D400010B500F062F8002801D100F053F810BD42
:105D5000014B18607047C046EC110020014B1868D9
:105D60007047C046F0110020F7B513480122844661
:105D70001249134C8E68636805689B0E13400192AC
:105D800088686268019F920E3A4067463F68934276
:105D90000ED1BD420CD186420AD35B19FA25486860
:105DA000AD00861B07486B437043000DC018FEBD55
:105DB0003D0013000600E3E7F011002010E000E0D2
:105DC00000ED00E05555000070B5041E11D0FFF73E
:105DD000CBFFFA260500B60000F016F8FFF7C4FF67
:105DE000401BB042F8D3FA23013C9B00ED18002C75
:105DF000F4D170BD10B5034A13680133136000F08D
:105E0000D3FB10BDF0110020704700207047704791
:105E100010B500F0D7F803F075F8FFF7F8FF012090
:105E2000FFF7D2FF094C2000FEF7AEFE2000FEF780
:105E300023FFFCF7CBFAFCF783FBFFF7E5FF044BEE
:105E4000002BF8D000E000BFF5E7C046A00B002013
:105E50000000000010B503F083F810BD10B503F08A
:105E600089F810BD1E2270B54648474943689343E0
:105E70001C3A1343436008238C6923438B61434CD2
:105E8000434B9C829C8A14439C82DC681442FCD065
:105E90000124404A14701578254203D055786DB21C
:105EA000002DF8DB01249460547864B2002CFBDBF5
:105EB000394C5460547864B2002CFBDB8224E4013A
:105EC0005480547864B2002CFBDB02249C840E3492
:105ED000DD682542FCD0314CDC621024DD682542AF
:105EE000FCD09D8C2E4C2C439C841024DD682542D4
:105EF000FCD002249D8C80262C439C844024DD68A9
:105F00003542FCD0DD682542F9D01024DD682542F9
:105F1000FCD000249460547864B2002CFBDB214C4C
:105F20005460547864B2002CFBDB1C6A1E4D2C407C
:105F300080251C621C6AAC431C62032393601B4BCC
:105F4000536053785BB2002BFBDB0023FF240B7202
:105F5000174A4B728B72CB72164B1A60164B174A4C
:105F60001B6811689A065B01C90E2340520F12028A
:105F70000B431343124A1385802342681343436043
:105F800070BDC04600400041000400400C06000007
:105F900000080040000C004001050100B905FF7D2C
:105FA000040A000000070300FFFCFFFF03060100D6
:105FB000006CDC02B00000202460800020608000C3
:105FC00000400042FA212E4B10B51868890000F0FD
:105FD000C5FB802301385B0498424FD229492A4AE5
:105FE0004860C020136A00061B021B0A03431362A9
:105FF00000238B6007330B608021136A09061B02A4
:106000001B0A0B431362FC22204B196A0A431A62D3
:10601000FF22196A12020A431A62A022196AD202E6
:106020000A431A621A4B1C005A7852B2002AFBDB50
:10603000184A5A80184B1A00597EC9090129FBD009
:10604000C821890099800521D970537EDB09012B75
:10605000FBD0C02300205B011361907000F022F898
:1060600063785BB2002BFBDB0C4B0D4A6380D3796A
:10607000DB09012BFBD04123537010BDFEE7C04666
:10608000B000002010E000E000ED00E0000400405F
:10609000000C00401E400000004000422140000073
:1060A000004800421F4900B50B004A7ED209012A70
:1060B000FBD001380A282FD800F046FB1B2E2E2ECD
:1060C0002E2E062E2E2411001A6917490A400F2180
:1060D0001A615A788A43110001220A4310E01A69B2
:1060E00011490A400F211A615A788A43110003228C
:1060F000F3E71A690C490A400F211A615A788A435A
:106100005A7000BD1A6908490A400F211A615A786D
:106110008A4311000222E0E7F022196912050A43BE
:10612000F3E7C04600400042FFFFFFF010B5040057
:10613000062861D0072861D0052800D80E34012137
:10614000200000F0C5F90E2C0DD12F4B1900DA7983
:10615000D209012AFBD002201A7882431A70CB7927
:10616000DB09012BFBD029490B004A7ED209012A09
:10617000FBD018206043264C0A692418207C1F2479
:106180002040A24302430A615A7ED209012AFBD071
:10619000022219780A431A705A7ED209012AFBD0CA
:1061A0000222197B0A431A731A7ED207FCD50122F8
:1061B0001A765A7ED209012AFBD00222197B0A43A1
:1061C0001A731A7ED207FCD5588B80B25A7ED20938
:1061D000012AFBD002211A788A431A705A7ED2090A
:1061E000012AFBD00B4B1A680B4B1B689A4202D05A
:1061F00006D9D31AD84010BD1424A0E715249EE771
:106200009B1A9840F7E7C046004800420040004211
:10621000D0BF0000B4000020B80000201823434382
:10622000F0B5684A0E009B18D968040085B08A074B
:1062300018D50E2816D1644A1300D179C90901294D
:10624000FBD0B605B60D1681DA79D209012AFBD04A
:10625000022219780A431A70DA79D209012AFBD08E
:1062600005B0F0BD0825594F294200D194E03A68A5
:10627000102A02D044D9103AD64012255D5FCB06D1
:1062800042D50421200000F023F92F12504BBA0010
:10629000D458504BEDB2DA5D002A5CD10132DA55A8
:1062A00068460F324C4902F06FFE6A467B009B5AEB
:1062B0008022D2011A43494B5A805A78D209012AC6
:1062C000FBD00222974223D9238893432380E37B88
:1062D000DB09FCD12288403313432380E37BDB09B5
:1062E000FCD10C35B6B26D002E53E37BDB09FCD13B
:1062F0002288023313432380E37BDB09FCD1AFE721
:106300001020821A9640B8E78B06A9D50521B9E777
:1063100023689343324A23601300A1681142FCD1E1
:106320000222E16B0A43E263A2681A42FCD11035F3
:10633000AD0065196E60A2681A42FCD1294A226438
:10634000A2681A42FCD1022221680A432260A26894
:106350001A42FCD184E7022F07D90C35B6B26D0082
:106360002E53E37BDB09FCD17AE7022362791343E6
:1063700063711B4B1A00A1681942FCD11C35AD009A
:106380002E51A3681342FCD1022321790B432371C0
:10639000A3681342FCD163E70121200000F024F838
:1063A0003B68082B02D009D9083BDE4000217F2E34
:1063B00000D90121200000F047F851E7EB1A9E4078
:1063C000F4E7C046D0BF000000480042BC000020F7
:1063D0001C000020F4110020C8C40000000C004084
:1063E000FF0F7F00FFFF0000182310B5082458435B
:1063F000134A13181C57013412D001245B688256CB
:106400009C4003290CD808000E49D2015218D31819
:10641000403300F099F90210060B02211970546004
:1064200010BD0621197054609461F9E706211970B6
:1064300054605461F4E7422119709460F0E7C0465B
:10644000D0BF0000004400411823F0B50824584391
:10645000114A13181C5701341BD0012635005F6800
:106460008356BD400D4ADB019A18906805420BD156
:106470000C00601E8441D21940321078344003363B
:10648000A400B04320431070044A9B18002901D196
:106490005D61F0BD9D61FCE7D0BF0000004400419C
:1064A000182310B50824434307490020CA1814577D
:1064B000013408D05B560549DB015B18186A536844
:1064C000D8400123184010BDD0BF00000044004157
:1064D000182370B5082643432A4AD518AE5734000E
:1064E000013607D0072907DC00291DDA01314C42AB
:1064F0004C416442200070BD0B00083BDBB200241D
:10650000032BF7D8092903D12100FFF76DFFF1E72D
:106510000A2904D10839FFF767FF0024EAE70024BD
:106520000B29E7D10A39F0E76C68012520009B565A
:10653000C9B262082840DB012C4211D012480E3546
:106540001B189A1830321078090128400143C9B24B
:10655000117041221B19403319780A431A70DCE785
:106560000F26094D5B199A18303215781B19B5435F
:106570002943117041224033197804000A431A70EC
:10658000B8E7C046D0BF000000440041014B18608E
:106590007047C046C00000200122024B52421A60E0
:1065A0007047C046C0000020164A10B51368591C39
:1065B00027D0013B1360002B23D172B68122124BEE
:1065C00092000433934213D3104A01211000147D2A
:1065D0000C42FCD02021148BFF319B085B0021432F
:1065E0001183D3610A4B13800123027D1A42FCD030
:1065F000BFF34F8F074B084ADA60BFF34F8FC04697
:10660000FDE710BDC0000020002000000040004158
:1066100002A5FFFF00ED00E00400FA0570B50E00D2
:1066200000254468002C0BD02368310020005B68F3
:106630009847002802DBE4682D18F3E701256D4236
:10664000280070BD70B50D004468002C08D0236888
:10665000290020009B689847002802D1E468F4E7ED
:10666000200070BD70B50D004468002C08D0236870
:10667000290020001B689847002802D1E468F4E74D
:10668000200070BD064A0123116810B50C000548B2
:106690001C40194203D1044944600180136010BDBD
:1066A000FC110020001200200204000070B504005C
:1066B000012320CC00212A782000134380222B7054
:1066C000520002F06AFCAB78DB07FCD4AB789B0786
:1066D000F9D46C6270BD00001F22144B70B51B68AA
:1066E000590B9C0C9B0111405B0F22401F2900D1CC
:1066F0001A391F2A00D1023A072B00D1043B1F256B
:1067000000688E01048D0A492A40214031430185E9
:10671000018D14000A00AA4322430285028D190349
:10672000044B13400B43038570BDC04624608000BA
:106730003FF8FFFFFF8FFFFF030010B508001900AF
:1067400002F0C2FB10BD000002B4714649084900C6
:10675000095C49008E4402BC7047C04600224308D1
:106760008B4274D303098B425FD3030A8B4244D319
:10677000030B8B4228D3030C8B420DD3FF2209025B
:1067800012BA030C8B4202D31212090265D0030B1A
:106790008B4219D300E0090AC30B8B4201D3CB0310
:1067A000C01A5241830B8B4201D38B03C01A524152
:1067B000430B8B4201D34B03C01A5241030B8B4254
:1067C00001D30B03C01A5241C30A8B4201D3CB023F
:1067D000C01A5241830A8B4201D38B02C01A524124
:1067E000430A8B4201D34B02C01A5241030A8B4227
:1067F00001D30B02C01A5241CDD2C3098B4201D33F
:10680000CB01C01A524183098B4201D38B01C01ABC
:10681000524143098B4201D34B01C01A5241030933
:106820008B4201D30B01C01A5241C3088B4201D3E2
:10683000CB00C01A524183088B4201D38B00C01A8F
:10684000524143088B4201D34B00C01A5241411AB6
:1068500000D20146524110467047FFE701B50020C3
:1068600000F0F0F802BDC0460029F7D076E7704787
:1068700003460B437FD4002243088B4274D30309A1
:106880008B425FD3030A8B4244D3030B8B4228D342
:10689000030C8B420DD3FF22090212BA030C8B4268
:1068A00002D31212090265D0030B8B4219D300E008
:1068B000090AC30B8B4201D3CB03C01A5241830B8D
:1068C0008B4201D38B03C01A5241430B8B4201D33D
:1068D0004B03C01A5241030B8B4201D30B03C01A66
:1068E0005241C30A8B4201D3CB02C01A5241830AE0
:1068F0008B4201D38B02C01A5241430A8B4201D30F
:106900004B02C01A5241030A8B4201D30B02C01A38
:106910005241CDD2C3098B4201D3CB01C01A52419F
:1069200083098B4201D38B01C01A524143098B4228
:1069300001D34B01C01A524103098B4201D30B0111
:10694000C01A5241C3088B4201D3CB00C01A524136
:1069500083088B4201D38B00C01A524143088B42FB
:1069600001D34B00C01A5241411A00D20146524194
:10697000104670475DE0CA0F00D04942031000D3B3
:106980004042534000229C4603098B422DD3030A08
:106990008B4212D3FC22890112BA030A8B420CD318
:1069A000890192118B4208D3890192118B4204D341
:1069B00089013AD0921100E08909C3098B4201D3C1
:1069C000CB01C01A524183098B4201D38B01C01AFB
:1069D000524143098B4201D34B01C01A5241030972
:1069E0008B4201D30B01C01A5241C3088B4201D321
:1069F000CB00C01A524183088B4201D38B00C01ACE
:106A00005241D9D243088B4201D34B00C01A5241A4
:106A1000411A00D20146634652415B10104601D331
:106A20004042002B00D54942704763465B1000D3BB
:106A3000404201B5002000F005F802BD0029F8D061
:106A400016E770477047C0468446101C62468C4665
:106A5000191C634600E0C0461FB501F011FA00287A
:106A600001D40021C8421FBD10B501F05BF94042BE
:106A7000013010BD10B501F003FA002801DB002041
:106A800010BD012010BDC04610B501F0F9F9002875
:106A900001DD002010BD012010BDC04610B501F081
:106AA0007DF9002801DC002010BD012010BDC0468A
:106AB00010B501F073F9002801DA002010BD0120A3
:106AC00010BDC0468446081C6146FFE71FB500F0B4
:106AD000C5F8002801D40021C8421FBD10B500F040
:106AE00049F84042013010BD10B500F0B7F8002859
:106AF00001DB002010BD012010BDC04610B500F024
:106B0000ADF8002801DD002010BD012010BDC046F9
:106B100010B500F057F8002801DC002010BD01205E
:106B200010BDC04610B500F04DF8002801DA002075
:106B300010BD012010BDC04670B500220C4B0400F2
:106B40000D00FFF7B5FF002804D12000290002F056
:106B500023F870BD064B00222000290001F06CFCD8
:106B600002F01AF880231B069C466044F1E7C046F9
:106B70000000E04170B542004E024C0045026D0A33
:106B8000120EC30F760A240EC90FFF2A0FD0FF2C56
:106B900011D00120A24200D070BDB542FCD18B4281
:106BA0000DD0002AF8D12800451EA841F4E70120A5
:106BB000002DF1D1EBE70120002EEDD1E9E7002017
:106BC000EAE7C046F0B5420046024D024C00C30F52
:106BD000760A120E6D0A240EC80FFF2A1FD0FF2C52
:106BE00010D0002A1FD171427141002C01D1002D1B
:106BF0001ED000290ED183421ED00221581E08400B
:106C00000138F0BD002D26D1002AF4D17142714126
:106C10000029F0D00028F4D101204042F1E7002EF5
:106C200019D1FF2CEED0002CE5D1002DE3D1E4E703
:106C30000020002EE5D0E0E7A24205DCEADBAE4210
:106C400002D8E7D30020DCE741424141484202211B
:106C500008400138D5E702204042D2E7F0B54200B3
:106C600046024D024C00C30F760A120E6D0A240E26
:106C7000C80FFF2A0DD0FF2C0FD0002A23D171425C
:106C80007141002C0FD1002D0DD10020002E14D009
:106C90000DE0002E10D1FF2C15D1002D0CD1002AB3
:106CA00003D171427141002908D1834210D00221E1
:106CB000581E0840013800E00220F0BD0028FCD139
:106CC00001204042F9E7002CEFD1002DEDD1EEE795
:106CD000A24205DCF2DBAE4202D8EFD30020ECE7A3
:106CE000414241414842022108400138E5E7C0469F
:106CF000F0B54646D6464F4643025B0ADA00944654
:106D00004A02C0B54400560A051CB046240E4E0087
:106D100092091F0020009246ED0F360EC90FFF2E7C
:106D200000D17FE0012251408D4251D0A21B9146FB
:106D3000002A00DC7EE0002E00D199E0FF2C00D17B
:106D40008CE080235246DB041A4392464A460123D4
:106D50001B2A08DC53462021D340891A52468A4018
:106D6000511E8A4113436246D31A5A0100D4F3E0FC
:106D70009B019E09300002F06BF805388640844282
:106D800000DDF7E03200041B20200134E240041B48
:106D9000A64033005E1EB341002413435A0704D0BB
:106DA0000F221A40042A00D004335A0100D4D6E03E
:106DB000621CFE2C00D1DAE09B015F0AD0B2C00554
:106DC0003843ED0728431CBC90469946A246F0BDC7
:106DD000A21B9146002A63DD002E00D199E0FF2C12
:106DE0003CD080235246DB041A4392464A46012394
:106DF0001B2A08DC53462021D340891A52468A4078
:106E0000511E8A41134363445A0100D4A4E0013463
:106E1000FF2C00D1ABE0012297491A405B080B40E0
:106E20001343BBE7002A32D08D4235D0FF225242B5
:106E30009146A1444A46002A51D0301B002C00D074
:106E40009CE06346002B00D1DFE00138002800D130
:106E5000F7E0FF2E00D099E00D004346002B00D153
:106E600085E08027FF031F437F02FF207F0AA6E7FC
:106E70005246002A74D0012252429046C1444A46EA
:106E8000002A00D1C8E0FF2C00D05FE7E6E701222E
:106E90005140A94200D049E7FF2252429146A14405
:106EA0004A46002A43D0311B002C00D18CE0FF2E33
:106EB00000D192E080236246DB041A43944601230A
:106EC0001B2909DC202063466246CB40411A8A40D8
:106ED0001100481E81410B433400534494E7FE22C5
:106EE000661C324264D1002C00D082E06346002B45
:106EF00000D1ABE05346002B00D160E76346524619
:106F00009B1A5A0100D4AAE0634652460D00D31AD8
:106F100044E75246002A23D0012252429046C144FF
:106F20004A46002A75D0FF2C00D05FE796E7FE2680
:106F30000134264253D1002872D16346002B00D180
:106F400093E05346002B00D139E7634400245A01F3
:106F500002D54A4A013413405A0700D020E7DB0823
:106F6000FF2C00D17AE75B025F0AE0B227E7FF203F
:106F7000002724E7414B241A33400FE7FF2E00D1AE
:106F80006AE780236246DB041A43944601231B28E8
:106F900009DC202463466246C340201A8240100068
:106FA000441EA041034352460D003400D31ADCE6D0
:106FB000634652469E1A730117D4002E00D0D9E6BC
:106FC000002500200027FAE66346002B44D0013953
:106FD00000294CD0FF2E00D071E743463EE7FF2C3E
:106FE000C5D0524662445308B6E763460D00D61A30
:106FF000C0E66246002A16D15346002B00D02BE78C
:1070000080270025FF20FF03D9E60D00434634000A
:10701000A6E753466344F7E6634652469B1AA4E646
:107020006246002AD9D05246002A00D116E78022B3
:10703000D203134200D111E74046104200D00DE7C1
:107040000AE752460D003400D31A8EE65346002B51
:1070500008D00D004746B2E64346340080E7002BD7
:1070600000D079E700250027A9E64746A7E6534662
:1070700034006344C8E6C046FFFFFF7DFFFFFFFB0F
:10708000F0B54F46D64646460D0001001800C0B583
:1070900017002B035A0A4B0F1343CA0091460203F1
:1070A0006E004100520AEC0F7D0F1543760D490D1D
:1070B000C00F8246AC46FF00721A844200D198E0AD
:1070C000002A00DC81E0002900D1B6E0C9498E42E7
:1070D00000D172E180212800090408438446382A3F
:1070E00000DD5EE11F2A00DDEEE12020390065466B
:1070F000801A8740D14085400D4339004F1EB94169
:107100006746D7402943DB1B4A46551AA9458941A2
:1071100049425B1A984643461B0200D4CCE04346E2
:107120005B025B0A98464346002B00D12CE14046A7
:1071300001F08EFE01000839202228004346521A31
:107140008B40D0408D4003438E4200DD17E18E1B03
:10715000721C1F2A00DDA7E1202118002E00891AC9
:107160008D408840D640D340691E8D4130439846BB
:10717000002605436B0709D00F232B40042B05D0B5
:107180002B1DAB42AD416D42A8441D0043461B027E
:1071900000D494E0974B721C9A4200D19DE0414686
:1071A000954BED0819400B00520549075B02294336
:1071B0001B0B520D12051343E4072343080019006B
:1071C0001CBC90469946A246F0BD002A43D08A1BBB
:1071D000002E00D02AE14C461C4300D1D1E1541EC0
:1071E000012A00D11FE2834DAA4200D172E222009F
:1071F00023E1002A00DC98E0002942D07D498E423C
:1072000000D1DAE080212800090408438446382AA6
:1072100000DD29E11F2A00DC87E1110065462039E5
:10722000CD40202A04D040206146821A91400F436D
:1072300039004F1EB9410D431BE12900394300D1EC
:10724000B5E0511E012A00D1ABE16A48824200D16B
:10725000B2E10A0043E76949751C0D4200D0CFE056
:10726000002E00D093E14946194300D1D1E1614697
:10727000394300D0E3E149465807C9080143DB0818
:1072800026E02900394300D191E0511E012A05D0A2
:107290005848824200D18FE10A00B8E73D004D44D2
:1072A0004D458941634498464942884443460226F5
:1072B0001B0200D5EBE0013E6B0700D05CE74346C4
:1072C000E9085A0711433200DB084A48824221D0BC
:1072D0001B0352051B0B520D6CE70023002169E7CD
:1072E0002A003A4369D04A465807D108DA08802371
:1072F0001B0308431A4207D02900ED081D4203D1A1
:107300002A00FF0848073843430FC1005B07C9083C
:10731000194313000A001A4300D113E2802212031A
:1073200013431B03334A1B0B44E7002A4BD08A1B31
:10733000002E00D1E7E02F48814200D195E1802066
:1073400000040343382A00DD43E11F2A00DDDBE1AE
:1073500020201D004E46801A8540D64035434E46BB
:1073600086403000D340461EB0419C440543ED1991
:10737000BD429B415B42634498460E007FE01E4A3B
:10738000761A13409846F5E6280001F061FD0100E9
:1073900018311F2900DCCFE62B0008388340002578
:1073A000D2E662463A4311004F1EB941ACE6494667
:1073B0005807C9080143DB0887E749465A07C90847
:1073C0001143DB08A6E70D49701C084200D0BBE062
:1073D000002E00D014E14946194300D175E129007F
:1073E000394300D07EE149465807C9080143DB080C
:1073F0006EE7C046FF070000FFFF7FFFFE070000AB
:107400004946CD1B6146581AA945894149428846DB
:1074100001004046091A8846090200D5A6E0414607
:10742000294300D07FE60023002451E7C74CA14246
:1074300000D1C7E0802424042343382A54DC1F2AC7
:1074400000DDCCE020244846A41A1D004E46A04092
:10745000D640A5400400D34062463543661EB44181
:10746000D31A9C46254344E062463A4315006F1EFA
:10747000BD414D444D458941494288469844434663
:107480001B0200D418E7B14B01369E4249D0424658
:10749000AF4B01211A4013006A080D401543D9076C
:1074A0005B0898460D4365E618001F3EF040202A11
:1074B00003D040218A1A93401D43691E8D41002349
:1074C000002698460543F7E6110065462039CD4071
:1074D000202A04D040206146821A91400F4339008F
:1074E0004F1EB94129430FE64A4613431D006B1E48
:1074F0009D417D1BAF429B4162465B42D31A984639
:1075000054460E0007E64846184300D1B3E0501E2B
:10751000012A00D10DE18D4DAA4200D1A5E0020063
:1075200010E732000023002144E620213800891AA8
:1075300065468F408D40D040791E8F4105433D43C5
:107540006746D740DB1994E7804A904200D1ECE0CF
:107550003900494449459241634452429B18DD0732
:1075600049085B08984606000D43A5E64A46BD1A41
:10757000AF42894162464942D31A5B1A9846544643
:10758000D1E56C07F9082143EB0804009DE64A4663
:107590001A4375D16146394314D1802300241B035B
:1075A000BCE64A46D51BA9458941624649429B1A19
:1075B0005B1A98460126AEE54A46D1085A071143A0
:1075C000DB08A7E66346F9085A0754461143DB086F
:1075D000A0E64A4613431D006B1E9D41C7E61400FA
:1075E0001E00203CE640202A05D04024A21A9340E9
:1075F0004A461A4391464D466B1E9D41354378E7F6
:107600004A461A4300D06BE66B07F9081943EB08AA
:1076100080E66146394354D06346F9085C0721434C
:10762000DB08040054E64A46BD1AAF42894162466F
:107630004942D31A5B1A9846040001266BE54A4674
:10764000D51BA9458941624649429A1A521A904669
:10765000120232D54A46BD1AAF42894162464942BA
:10766000D31A5B1A9846040084E56346F9085A0762
:107670001143DB084EE6F90868070143EB0824E6EE
:1076800062463A4300D198E64A46D1085A07114368
:10769000DA0880231B031A4208D06046C5081D4241
:1076A00004D154462A00F908430719434B0FC90077
:1076B0005B07C908194313002CE64146294300D053
:1076C000FAE500230A00002402E66B07F9081943D3
:1076D000EB08FDE56346F9085B07194363460400C0
:1076E000DB0817E63D004D4463444D45894198460B
:1076F0004942884443461B0200D4DDE54246144B10
:1077000001261A409046D7E510001E002038C640DA
:10771000202A05D04020821A93404A461A439146B7
:107720004D466B1E9D41354321E60200002300219A
:1077300040E54A46D519BD428941634498464942CD
:107740008844B3E50021014A0B0033E5FF07000040
:10775000FFFF7FFFF0B557464E464546DE46E0B593
:10776000814605000C03480092461F0085B0240B9B
:10777000400DCE0F002859D0874B984200D198E099
:107780006B0FE4001C4380231B0423439846834B68
:10779000ED009B4600239946834400933C037B0005
:1077A0005046240B5B0DFF0F002B67D07A4A9342A3
:1077B00018D07A49420F8C46E4005946144380227F
:1077C00063441204CB1A14439B46C20000203300CA
:1077D0007B409A464B460F2B00D9EFE070499B0047
:1077E000CB589F466F4B52469C462243E344002AA7
:1077F00000D095E04946022319438946002402201F
:10780000E5E700230024002552461B052343D20749
:1078100013432800190005B03CBC90469946A24687
:10782000AB46F0BD002400255B4BEDE74B46234300
:10783000984600D189E0002C00D1E0E1200001F061
:1078400007FB010002000B391D235B1A494610009B
:10785000D940083884400B004D4623439846854064
:1078600051483C03831A9B460023994600937B00B2
:107870005046240B5B0DFF0F002B97D1524622433D
:1078800055D0002C00D1CAE1200001F0E1FA02003D
:107890000B3A1D2301009B1A52460839DA408C40EE
:1078A000144352468A40414B58449B46834400202F
:1078B0008DE74B462343984640D108239946063B23
:1078C00000258346009369E7B246009B022BA9D0AE
:1078D000032B00D111E2012B93D0354A5A44002AE0
:1078E00000DC3CE16B0700D0A7E1ED084346DB017B
:1078F00006D542462F4B1A4090468022D2005A4469
:107900002D4B9A428EDC4346520558075C020543D4
:10791000240B530D78E7BA46A04615000090D4E733
:107920004A4603231A439146032052464FE74946ED
:107930000123194389460024012048E70C23994676
:10794000093BA0468346009328E704239946002379
:107950009B4601330025009320E7002380249A46AC
:1079600000250D4B24034FE7802341461B0319429A
:1079700008D01C4206D11C432403BA461500064B0E
:10798000240B41E78024434624031C432403B246CE
:10799000014B240B38E7C046FF07000001FCFFFF46
:1079A000D8C4000001F8FFFF0DFCFFFFF303000047
:1079B000FF030000FFFFFFFEFE070000444500D26A
:1079C00016E100D111E101235B429C462E004046A6
:1079D0000025E3442302140E1C431B0C9946230488
:1079E0001F0C1202494600920197FEF73DFF02006C
:1079F0007A430B04310C804619438A420BD9012388
:107A00005B429C460919E0448C4204D88A4202D960
:107A1000831E98460919881A4946FEF725FF09046E
:107A20008C4631046646019A090C424303003143F7
:107A30008A4204D90919013B8C4200D811E1891A04
:107A40004246009E12041A43330C1F00100C90464D
:107A5000029313043204160C32001B0C5A43039693
:107A60007B4346437843170CBC469B1963449E42B4
:107A700003D980267602B44660441E0C30181604E2
:107A80001B04360C9E19814200D29CE000D197E085
:107A9000AE1B091AB54280414042081A844200D107
:107AA00011E14946FEF7E0FE019A0B044243310C16
:107AB000050019438A4207D90919013D8C4203D8B0
:107AC0008A4201D9851E0919881A4946FEF7CCFE5B
:107AD00009048C4631046646019A090C42430300AE
